{
  "contractName": "Voters",
  "abi": [
    {
      "inputs": [],
      "stateMutability": "nonpayable",
      "type": "constructor"
    },
    {
      "anonymous": false,
      "inputs": [
        {
          "components": [
            {
              "internalType": "uint256",
              "name": "id",
              "type": "uint256"
            },
            {
              "internalType": "string",
              "name": "name",
              "type": "string"
            },
            {
              "internalType": "uint256",
              "name": "regNo",
              "type": "uint256"
            },
            {
              "internalType": "uint256",
              "name": "voteCount",
              "type": "uint256"
            }
          ],
          "indexed": false,
          "internalType": "struct Voters.Candidate[]",
          "name": "res",
          "type": "tuple[]"
        }
      ],
      "name": "getWinnerArr",
      "type": "event"
    },
    {
      "inputs": [
        {
          "internalType": "uint256",
          "name": "electionID",
          "type": "uint256"
        },
        {
          "internalType": "uint256",
          "name": "userID",
          "type": "uint256"
        }
      ],
      "name": "mapUserToElection",
      "outputs": [],
      "stateMutability": "nonpayable",
      "type": "function"
    },
    {
      "inputs": [
        {
          "internalType": "uint256",
          "name": "electionID",
          "type": "uint256"
        },
        {
          "internalType": "uint256",
          "name": "userID",
          "type": "uint256"
        }
      ],
      "name": "removeUserElectionMap",
      "outputs": [],
      "stateMutability": "nonpayable",
      "type": "function"
    },
    {
      "inputs": [
        {
          "internalType": "uint256",
          "name": "electionID",
          "type": "uint256"
        }
      ],
      "name": "getUnaddedUserToElection",
      "outputs": [
        {
          "components": [
            {
              "internalType": "uint256",
              "name": "id",
              "type": "uint256"
            },
            {
              "internalType": "string",
              "name": "aadhar",
              "type": "string"
            },
            {
              "internalType": "string",
              "name": "name",
              "type": "string"
            },
            {
              "internalType": "string",
              "name": "email",
              "type": "string"
            },
            {
              "internalType": "bytes32",
              "name": "pass",
              "type": "bytes32"
            },
            {
              "internalType": "string",
              "name": "cid",
              "type": "string"
            },
            {
              "internalType": "string",
              "name": "key",
              "type": "string"
            },
            {
              "internalType": "bool",
              "name": "isValidated",
              "type": "bool"
            }
          ],
          "internalType": "struct Voters.User[]",
          "name": "",
          "type": "tuple[]"
        }
      ],
      "stateMutability": "view",
      "type": "function",
      "constant": true
    },
    {
      "inputs": [
        {
          "internalType": "uint256",
          "name": "electionID",
          "type": "uint256"
        }
      ],
      "name": "getAddedUserToElection",
      "outputs": [
        {
          "components": [
            {
              "internalType": "uint256",
              "name": "id",
              "type": "uint256"
            },
            {
              "internalType": "string",
              "name": "aadhar",
              "type": "string"
            },
            {
              "internalType": "string",
              "name": "name",
              "type": "string"
            },
            {
              "internalType": "string",
              "name": "email",
              "type": "string"
            },
            {
              "internalType": "bytes32",
              "name": "pass",
              "type": "bytes32"
            },
            {
              "internalType": "string",
              "name": "cid",
              "type": "string"
            },
            {
              "internalType": "string",
              "name": "key",
              "type": "string"
            },
            {
              "internalType": "bool",
              "name": "isValidated",
              "type": "bool"
            }
          ],
          "internalType": "struct Voters.User[]",
          "name": "",
          "type": "tuple[]"
        }
      ],
      "stateMutability": "view",
      "type": "function",
      "constant": true
    },
    {
      "inputs": [
        {
          "internalType": "uint256",
          "name": "electionID",
          "type": "uint256"
        },
        {
          "internalType": "uint256",
          "name": "regNo",
          "type": "uint256"
        }
      ],
      "name": "isCandidateMapped",
      "outputs": [
        {
          "internalType": "bool",
          "name": "",
          "type": "bool"
        }
      ],
      "stateMutability": "view",
      "type": "function",
      "constant": true
    },
    {
      "inputs": [
        {
          "internalType": "uint256",
          "name": "id",
          "type": "uint256"
        }
      ],
      "name": "getCandidates",
      "outputs": [
        {
          "components": [
            {
              "internalType": "uint256",
              "name": "id",
              "type": "uint256"
            },
            {
              "internalType": "string",
              "name": "name",
              "type": "string"
            },
            {
              "internalType": "uint256",
              "name": "regNo",
              "type": "uint256"
            },
            {
              "internalType": "uint256",
              "name": "voteCount",
              "type": "uint256"
            }
          ],
          "internalType": "struct Voters.Candidate[]",
          "name": "",
          "type": "tuple[]"
        }
      ],
      "stateMutability": "view",
      "type": "function",
      "constant": true
    },
    {
      "inputs": [
        {
          "internalType": "uint256",
          "name": "regNo",
          "type": "uint256"
        },
        {
          "internalType": "uint256",
          "name": "electionID",
          "type": "uint256"
        },
        {
          "internalType": "uint256",
          "name": "candidateID",
          "type": "uint256"
        }
      ],
      "name": "mapCandidate",
      "outputs": [],
      "stateMutability": "nonpayable",
      "type": "function"
    },
    {
      "inputs": [
        {
          "internalType": "string",
          "name": "name",
          "type": "string"
        },
        {
          "internalType": "uint256",
          "name": "regNo",
          "type": "uint256"
        },
        {
          "internalType": "uint256",
          "name": "electionID",
          "type": "uint256"
        }
      ],
      "name": "addCandidate",
      "outputs": [],
      "stateMutability": "nonpayable",
      "type": "function"
    },
    {
      "inputs": [
        {
          "internalType": "uint256",
          "name": "id",
          "type": "uint256"
        }
      ],
      "name": "removeElection",
      "outputs": [],
      "stateMutability": "nonpayable",
      "type": "function"
    },
    {
      "inputs": [
        {
          "internalType": "string",
          "name": "name",
          "type": "string"
        }
      ],
      "name": "addElection",
      "outputs": [],
      "stateMutability": "nonpayable",
      "type": "function"
    },
    {
      "inputs": [
        {
          "internalType": "uint256",
          "name": "id",
          "type": "uint256"
        }
      ],
      "name": "auditElections",
      "outputs": [],
      "stateMutability": "nonpayable",
      "type": "function"
    },
    {
      "inputs": [],
      "name": "getElectionList",
      "outputs": [
        {
          "components": [
            {
              "internalType": "uint256",
              "name": "id",
              "type": "uint256"
            },
            {
              "internalType": "string",
              "name": "name",
              "type": "string"
            },
            {
              "internalType": "uint256",
              "name": "totalVote",
              "type": "uint256"
            },
            {
              "internalType": "uint256",
              "name": "candidateCount",
              "type": "uint256"
            },
            {
              "internalType": "bool",
              "name": "isActive",
              "type": "bool"
            },
            {
              "internalType": "bool",
              "name": "deleted",
              "type": "bool"
            },
            {
              "internalType": "uint256",
              "name": "createdBy",
              "type": "uint256"
            }
          ],
          "internalType": "struct Voters.Election[]",
          "name": "",
          "type": "tuple[]"
        }
      ],
      "stateMutability": "view",
      "type": "function",
      "constant": true
    },
    {
      "inputs": [],
      "name": "getActiveElections",
      "outputs": [
        {
          "components": [
            {
              "internalType": "uint256",
              "name": "id",
              "type": "uint256"
            },
            {
              "internalType": "string",
              "name": "name",
              "type": "string"
            },
            {
              "internalType": "uint256",
              "name": "totalVote",
              "type": "uint256"
            },
            {
              "internalType": "uint256",
              "name": "candidateCount",
              "type": "uint256"
            },
            {
              "internalType": "bool",
              "name": "isActive",
              "type": "bool"
            },
            {
              "internalType": "bool",
              "name": "deleted",
              "type": "bool"
            },
            {
              "internalType": "uint256",
              "name": "createdBy",
              "type": "uint256"
            }
          ],
          "internalType": "struct Voters.Election[]",
          "name": "",
          "type": "tuple[]"
        }
      ],
      "stateMutability": "view",
      "type": "function",
      "constant": true
    },
    {
      "inputs": [],
      "name": "isUserRegistered",
      "outputs": [
        {
          "internalType": "bool",
          "name": "",
          "type": "bool"
        }
      ],
      "stateMutability": "view",
      "type": "function",
      "constant": true
    },
    {
      "inputs": [
        {
          "internalType": "string",
          "name": "pass",
          "type": "string"
        },
        {
          "internalType": "string",
          "name": "aadhar",
          "type": "string"
        }
      ],
      "name": "loginUser",
      "outputs": [
        {
          "internalType": "bool",
          "name": "",
          "type": "bool"
        }
      ],
      "stateMutability": "view",
      "type": "function",
      "constant": true
    },
    {
      "inputs": [
        {
          "internalType": "string",
          "name": "_pass",
          "type": "string"
        }
      ],
      "name": "setPass",
      "outputs": [],
      "stateMutability": "nonpayable",
      "type": "function"
    },
    {
      "inputs": [
        {
          "internalType": "uint256",
          "name": "id",
          "type": "uint256"
        }
      ],
      "name": "switchRole",
      "outputs": [],
      "stateMutability": "nonpayable",
      "type": "function"
    },
    {
      "inputs": [
        {
          "internalType": "uint256",
          "name": "id",
          "type": "uint256"
        }
      ],
      "name": "getUserRole",
      "outputs": [
        {
          "internalType": "bool",
          "name": "",
          "type": "bool"
        }
      ],
      "stateMutability": "view",
      "type": "function",
      "constant": true
    },
    {
      "inputs": [
        {
          "internalType": "string",
          "name": "_string1",
          "type": "string"
        }
      ],
      "name": "collisionHash",
      "outputs": [
        {
          "internalType": "bytes32",
          "name": "",
          "type": "bytes32"
        }
      ],
      "stateMutability": "pure",
      "type": "function",
      "constant": true
    },
    {
      "inputs": [
        {
          "internalType": "string",
          "name": "aadhar",
          "type": "string"
        },
        {
          "internalType": "string",
          "name": "name",
          "type": "string"
        },
        {
          "internalType": "string",
          "name": "email",
          "type": "string"
        },
        {
          "internalType": "string",
          "name": "pass",
          "type": "string"
        },
        {
          "internalType": "string",
          "name": "cid",
          "type": "string"
        },
        {
          "internalType": "string",
          "name": "key",
          "type": "string"
        },
        {
          "internalType": "bool",
          "name": "isValidated",
          "type": "bool"
        }
      ],
      "name": "addUser",
      "outputs": [],
      "stateMutability": "nonpayable",
      "type": "function"
    },
    {
      "inputs": [
        {
          "internalType": "uint256",
          "name": "userID",
          "type": "uint256"
        }
      ],
      "name": "ValidateUser",
      "outputs": [],
      "stateMutability": "nonpayable",
      "type": "function"
    },
    {
      "inputs": [],
      "name": "getUserList",
      "outputs": [
        {
          "components": [
            {
              "internalType": "uint256",
              "name": "id",
              "type": "uint256"
            },
            {
              "internalType": "string",
              "name": "aadhar",
              "type": "string"
            },
            {
              "internalType": "string",
              "name": "name",
              "type": "string"
            },
            {
              "internalType": "string",
              "name": "email",
              "type": "string"
            },
            {
              "internalType": "bytes32",
              "name": "pass",
              "type": "bytes32"
            },
            {
              "internalType": "string",
              "name": "cid",
              "type": "string"
            },
            {
              "internalType": "string",
              "name": "key",
              "type": "string"
            },
            {
              "internalType": "bool",
              "name": "isValidated",
              "type": "bool"
            }
          ],
          "internalType": "struct Voters.User[]",
          "name": "",
          "type": "tuple[]"
        }
      ],
      "stateMutability": "view",
      "type": "function",
      "constant": true
    },
    {
      "inputs": [],
      "name": "getVoterList",
      "outputs": [
        {
          "components": [
            {
              "internalType": "uint256",
              "name": "id",
              "type": "uint256"
            },
            {
              "internalType": "string",
              "name": "aadhar",
              "type": "string"
            },
            {
              "internalType": "string",
              "name": "name",
              "type": "string"
            },
            {
              "internalType": "string",
              "name": "email",
              "type": "string"
            },
            {
              "internalType": "bytes32",
              "name": "pass",
              "type": "bytes32"
            },
            {
              "internalType": "string",
              "name": "cid",
              "type": "string"
            },
            {
              "internalType": "string",
              "name": "key",
              "type": "string"
            },
            {
              "internalType": "bool",
              "name": "isValidated",
              "type": "bool"
            }
          ],
          "internalType": "struct Voters.User[]",
          "name": "",
          "type": "tuple[]"
        }
      ],
      "stateMutability": "view",
      "type": "function",
      "constant": true
    },
    {
      "inputs": [],
      "name": "getSender",
      "outputs": [
        {
          "internalType": "address",
          "name": "",
          "type": "address"
        }
      ],
      "stateMutability": "view",
      "type": "function",
      "constant": true
    },
    {
      "inputs": [],
      "name": "getUserDetails",
      "outputs": [
        {
          "components": [
            {
              "internalType": "uint256",
              "name": "id",
              "type": "uint256"
            },
            {
              "internalType": "string",
              "name": "aadhar",
              "type": "string"
            },
            {
              "internalType": "string",
              "name": "name",
              "type": "string"
            },
            {
              "internalType": "string",
              "name": "email",
              "type": "string"
            },
            {
              "internalType": "bytes32",
              "name": "pass",
              "type": "bytes32"
            },
            {
              "internalType": "string",
              "name": "cid",
              "type": "string"
            },
            {
              "internalType": "string",
              "name": "key",
              "type": "string"
            },
            {
              "internalType": "bool",
              "name": "isValidated",
              "type": "bool"
            }
          ],
          "internalType": "struct Voters.User",
          "name": "",
          "type": "tuple"
        }
      ],
      "stateMutability": "view",
      "type": "function",
      "constant": true
    },
    {
      "inputs": [
        {
          "internalType": "uint256",
          "name": "id",
          "type": "uint256"
        }
      ],
      "name": "getMappedElections",
      "outputs": [
        {
          "components": [
            {
              "internalType": "uint256",
              "name": "id",
              "type": "uint256"
            },
            {
              "internalType": "string",
              "name": "name",
              "type": "string"
            },
            {
              "internalType": "uint256",
              "name": "totalVote",
              "type": "uint256"
            },
            {
              "internalType": "uint256",
              "name": "candidateCount",
              "type": "uint256"
            },
            {
              "internalType": "bool",
              "name": "isActive",
              "type": "bool"
            },
            {
              "internalType": "bool",
              "name": "deleted",
              "type": "bool"
            },
            {
              "internalType": "uint256",
              "name": "createdBy",
              "type": "uint256"
            }
          ],
          "internalType": "struct Voters.Election[]",
          "name": "",
          "type": "tuple[]"
        }
      ],
      "stateMutability": "view",
      "type": "function",
      "constant": true
    },
    {
      "inputs": [
        {
          "internalType": "uint256",
          "name": "id",
          "type": "uint256"
        }
      ],
      "name": "getAllMappedElections",
      "outputs": [
        {
          "components": [
            {
              "internalType": "uint256",
              "name": "id",
              "type": "uint256"
            },
            {
              "internalType": "string",
              "name": "name",
              "type": "string"
            },
            {
              "internalType": "uint256",
              "name": "totalVote",
              "type": "uint256"
            },
            {
              "internalType": "uint256",
              "name": "candidateCount",
              "type": "uint256"
            },
            {
              "internalType": "bool",
              "name": "isActive",
              "type": "bool"
            },
            {
              "internalType": "bool",
              "name": "deleted",
              "type": "bool"
            },
            {
              "internalType": "uint256",
              "name": "createdBy",
              "type": "uint256"
            }
          ],
          "internalType": "struct Voters.Election[]",
          "name": "",
          "type": "tuple[]"
        }
      ],
      "stateMutability": "view",
      "type": "function",
      "constant": true
    },
    {
      "inputs": [
        {
          "internalType": "uint256",
          "name": "userid",
          "type": "uint256"
        },
        {
          "internalType": "uint256",
          "name": "electionid",
          "type": "uint256"
        }
      ],
      "name": "checkVote",
      "outputs": [
        {
          "internalType": "bool",
          "name": "",
          "type": "bool"
        }
      ],
      "stateMutability": "view",
      "type": "function",
      "constant": true
    },
    {
      "inputs": [
        {
          "internalType": "uint256",
          "name": "userid",
          "type": "uint256"
        },
        {
          "internalType": "uint256",
          "name": "electionid",
          "type": "uint256"
        },
        {
          "internalType": "uint256",
          "name": "candidateid",
          "type": "uint256"
        }
      ],
      "name": "castVote",
      "outputs": [],
      "stateMutability": "nonpayable",
      "type": "function"
    },
    {
      "inputs": [
        {
          "internalType": "uint256",
          "name": "userid",
          "type": "uint256"
        },
        {
          "internalType": "uint256",
          "name": "electionid",
          "type": "uint256"
        },
        {
          "internalType": "uint256",
          "name": "candidateid",
          "type": "uint256"
        },
        {
          "internalType": "uint256",
          "name": "time",
          "type": "uint256"
        }
      ],
      "name": "setHistory",
      "outputs": [],
      "stateMutability": "nonpayable",
      "type": "function"
    },
    {
      "inputs": [
        {
          "internalType": "uint256",
          "name": "userid",
          "type": "uint256"
        }
      ],
      "name": "getHistory",
      "outputs": [
        {
          "components": [
            {
              "internalType": "string",
              "name": "poll",
              "type": "string"
            },
            {
              "internalType": "string",
              "name": "candidate",
              "type": "string"
            },
            {
              "internalType": "uint256",
              "name": "time",
              "type": "uint256"
            }
          ],
          "internalType": "struct Voters.History[]",
          "name": "",
          "type": "tuple[]"
        }
      ],
      "stateMutability": "view",
      "type": "function",
      "constant": true
    },
    {
      "inputs": [
        {
          "internalType": "uint256",
          "name": "electionID",
          "type": "uint256"
        }
      ],
      "name": "findWinner",
      "outputs": [],
      "stateMutability": "nonpayable",
      "type": "function"
    },
    {
      "inputs": [
        {
          "internalType": "uint256",
          "name": "electionID",
          "type": "uint256"
        },
        {
          "components": [
            {
              "internalType": "uint256",
              "name": "id",
              "type": "uint256"
            },
            {
              "internalType": "string",
              "name": "name",
              "type": "string"
            },
            {
              "internalType": "uint256",
              "name": "regNo",
              "type": "uint256"
            },
            {
              "internalType": "uint256",
              "name": "voteCount",
              "type": "uint256"
            }
          ],
          "internalType": "struct Voters.Candidate",
          "name": "cnd",
          "type": "tuple"
        }
      ],
      "name": "setTieWinner",
      "outputs": [],
      "stateMutability": "nonpayable",
      "type": "function"
    },
    {
      "inputs": [
        {
          "internalType": "uint256",
          "name": "electionID",
          "type": "uint256"
        }
      ],
      "name": "getWinner",
      "outputs": [
        {
          "components": [
            {
              "internalType": "uint256",
              "name": "id",
              "type": "uint256"
            },
            {
              "internalType": "string",
              "name": "name",
              "type": "string"
            },
            {
              "internalType": "uint256",
              "name": "regNo",
              "type": "uint256"
            },
            {
              "internalType": "uint256",
              "name": "voteCount",
              "type": "uint256"
            }
          ],
          "internalType": "struct Voters.Candidate",
          "name": "",
          "type": "tuple"
        }
      ],
      "stateMutability": "view",
      "type": "function",
      "constant": true
    }
  ],
  "bytecode": "0x60806040523480156200001157600080fd5b5060006040518060800160405280604a815260200162005dd3604a91399050600073cdbd5b3d6347eedbdc0149bf920527d525412d2590506000604051806101000160405280600081526020016040518060400160405280600c81526020017f303030303030303030303030000000000000000000000000000000000000000081525081526020016040518060400160405280600581526020017f41646d696e00000000000000000000000000000000000000000000000000000081525081526020016040518060400160405280601181526020017f61646d696e4061646d696e2e61646d696e000000000000000000000000000000815250815260200162000129856200039d640100000000026401000000009004565b815260408051808201825260018082527f30000000000000000000000000000000000000000000000000000000000000006020838101919091528085019290925282518084018452601081527f4d525344534d4356474a5346454e5a5400000000000000000000000000000000818401529284019290925260609092018190528354808201855560009485529382902083516008909502019384559082015191929190820190620001db9082620004a6565b5060408201516002820190620001f29082620004a6565b5060608201516003820190620002099082620004a6565b506080820151600482015560a082015160058201906200022a9082620004a6565b5060c08201516006820190620002419082620004a6565b5060e08201518160070160006101000a81548160ff02191690831515021790555050506001600080815481106200027c576200027c62000578565b600091825260208083208454600181810187559585529190932060089283029093018054919092029092019182559181810190620002bd90840182620005a7565b50600281810190620002d290840182620005a7565b50600381810190620002e790840182620005a7565b506004820154816004015560058201816005019081620003089190620005a7565b506006818101906200031d90840182620005a7565b50600791820154908201805460ff909216151560ff199283161790557fec8156718a8372b1db44bb411437d0870f3e3790d4a08526d024ce1b0b668f6b805482166001908117909155600160a060020a039093166000908152602092835260408082208290556008909352919091208054909116909117905550620006e6565b600081604051602001620003b2919062000696565b604051602081830303815290604052805190602001209050919050565b7f4e487b7100000000000000000000000000000000000000000000000000000000600052604160045260246000fd5b6002810460018216806200041357607f821691505b6020821081036200044d577f4e487b7100000000000000000000000000000000000000000000000000000000600052602260045260246000fd5b50919050565b601f821115620004a1576000818152602081206020601f860104810160208610156200047c5750805b6020601f860104820191505b818110156200049d5782815560010162000488565b5050505b505050565b81516001604060020a03811115620004c257620004c2620003cf565b620004da81620004d38454620003fe565b8462000453565b602080601f831160018114620005165760008415620004f95750858301515b60028086026008870290910a60001904198216178655506200049d565b600085815260208120601f198616915b82811015620005475788860151825594840194600190910190840162000526565b50858210156200056857878501516008601f88160260020a60001904191681555b5050505050600202600101905550565b7f4e487b7100000000000000000000000000000000000000000000000000000000600052603260045260246000fd5b818103620005b3575050565b620005bf8254620003fe565b6001604060020a03811115620005d957620005d9620003cf565b620005ea81620004d38454620003fe565b6000601f821160018114620006255760008315620006085750848201545b60028085026008860290910a60001904198216178555506200068f565b600085815260209020601f19841690600086815260209020845b838110156200066157828601548255600195860195909101906020016200063f565b50858310156200068257818501546008601f88160260020a60001904191681555b5050506001600284020184555b5050505050565b600060208083528351808285015260005b81811015620006c557858101830151858201604001528201620006a7565b506000604082860101526040601f19601f8301168501019250505092915050565b6156dd80620006f66000396000f3fe608060405234801561001057600080fd5b5060043610610243576000357c010000000000000000000000000000000000000000000000000000000090048063873138f311610147578063c1f7a67d116100da578063e9674506116100a9578063eeadb2801161008e578063eeadb28014610536578063f3e394e814610559578063f891d79e1461058757600080fd5b8063e967450614610510578063ebfdb43a1461052357600080fd5b8063c1f7a67d14610442578063c830b8cc14610491578063c8691b2a146104a4578063e0ddc29f146104c457600080fd5b80639bb7f7c4116101165780639bb7f7c41461040c5780639cd7e0431461041f578063b28d92ae14610432578063b85220431461043a57600080fd5b8063873138f3146103d45780638a3b63b0146103dc578063942886be146103e4578063997baa66146103f957600080fd5b80634129b2c9116101da5780635c884306116101a9578063607a3cfe1161018e578063607a3cfe146103805780637c91d7a614610393578063848227c0146103b457600080fd5b80635c8843061461035f5780635e01eb5a1461037257600080fd5b80634129b2c91461030657806344e9fd4b146103265780635be5e3ec146103395780635c85a46b1461034c57600080fd5b806322ce12e51161021657806322ce12e5146102ab578063358b9d97146102be57806336ad34d3146102d15780633e39a7a5146102e657600080fd5b806305e49d1d14610248578063184f3d551461025d5780631970e4461461028557806321fd46d214610298575b600080fd5b61025b610256366004614aa5565b6105d9565b005b61027061026b366004614abe565b610b4b565b60405190151581526020015b60405180910390f35b61025b610293366004614bba565b610b83565b61025b6102a6366004614c08565b610d3d565b6102706102b9366004614c3a565b610f11565b61025b6102cc366004614c9e565b61130a565b6102d9611482565b60405161027c9190614d49565b6102f96102f4366004614aa5565b611944565b60405161027c9190614e50565b610319610314366004614aa5565b611beb565b60405161027c9190614ecf565b61025b610334366004614c9e565b611d67565b61025b610347366004614ee9565b611dfe565b61025b61035a366004614aa5565b611fcf565b61025b61036d366004614ee9565b6120f5565b60405133815260200161027c565b6102d961038e366004614aa5565b6121a6565b6103a66103a1366004614c9e565b6124a2565b60405190815260200161027c565b6103c76103c2366004614aa5565b6124d2565b60405161027c9190614fbd565b610270612a3d565b6102d9612a65565b6103ec612f30565b60405161027c919061502f565b6103c7610407366004614aa5565b613339565b6102d961041a366004614aa5565b6138a5565b61025b61042d366004614aa5565b613c11565b6103c7613c9a565b6103c76140ad565b61025b610450366004614abe565b6000918252600c60209081526040808420928452919052902080547fffffffffffffffffffffffffffffffffffffffffffffffffffffffffffffff00169055565b61025b61049f366004614aa5565b6145f3565b6104b76104b2366004614aa5565b614633565b60405161027c9190615042565b61025b6104d2366004614aa5565b600090815260096020526040902080547fffffffffffffffffffffffffffffffffffffffffffffffffffffffffffffff00811660ff90911615179055565b61025b61051e3660046150e0565b6147d3565b61025b61053136600461519d565b614862565b610270610544366004614aa5565b60009081526009602052604090205460ff1690565b610270610567366004614abe565b6000918252600d6020908152604080842092845291905290205460ff1690565b61025b610595366004614abe565b6000918252600c60209081526040808420928452919052902080547fffffffffffffffffffffffffffffffffffffffffffffffffffffffffffffff00166001179055565b600381815481106105ec576105ec6152a4565b6000918252602090912060069091020160040154610100900460ff161561061257600080fd5b60038181548110610625576106256152a4565b600091825260209091206004600690920201015460ff161561064657600080fd5b60006003828154811061065b5761065b6152a4565b9060005260206000209060060201600201541161067757600080fd5b60025460009067ffffffffffffffff81111561069557610695614ae0565b6040519080825280602002602001820160405280156106f157816020015b6106de6040518060800160405280600081526020016060815260200160008152602001600081525090565b8152602001906001900390816106b35790505b50905060008060005b6002548110156108cd576000858152600b6020908152604080832084845290915290205460ff161515600114801561075657508160028281548110610741576107416152a4565b90600052602060002090600402016003015410155b8015610787575060028181548110610770576107706152a4565b906000526020600020906004020160020154600014155b156108bb576002818154811061079f5761079f6152a4565b9060005260206000209060040201600301549150600281815481106107c6576107c66152a4565b9060005260206000209060040201604051806080016040529081600082015481526020016001820180546107f9906152d3565b80601f0160208091040260200160405190810160405280929190818152602001828054610825906152d3565b80156108725780601f1061084757610100808354040283529160200191610872565b820191906000526020600020905b81548152906001019060200180831161085557829003601f168201915b50505050508152602001600282015481526020016003820154815250508484815181106108a1576108a16152a4565b602002602001018190525082806108b79061534f565b9350505b806108c58161534f565b9150506106fa565b5060008267ffffffffffffffff8111156108e9576108e9614ae0565b60405190808252806020026020018201604052801561094557816020015b6109326040518060800160405280600081526020016060815260200160008152602001600081525090565b8152602001906001900390816109075790505b50905060005b8381101561099d57848181518110610965576109656152a4565b602002602001015182828151811061097f5761097f6152a4565b602002602001018190525080806109959061534f565b91505061094b565b508051600003610a715760408051608081018252600080825282518084018452600981527f4e6f2057696e6e6572000000000000000000000000000000000000000000000060208281019190915280840191825283850183905260608401839052898352600490529290208151815591519091906001820190610a2090826153d5565b506040828101516002830155606090920151600390910155600086815260056020522080547fffffffffffffffffffffffffffffffffffffffffffffffffffffffffffffff00166001179055610b0d565b8051600103610b0d5780600081518110610a8d57610a8d6152a4565b6020908102919091018101516000878152600483526040902081518155918101519091906001820190610ac090826153d5565b506040828101516002830155606090920151600390910155600086815260056020522080547fffffffffffffffffffffffffffffffffffffffffffffffffffffffffffffff001660011790555b7fbb3e42b26c5352e1f570a7b46a0ee5c09fbe3df08841c91ae1ebe0f6d0062a5581604051610b3c9190614e50565b60405180910390a15050505050565b6000818152600a6020908152604080832085845290915281205460ff161515600103610b7957506001610b7d565b5060005b92915050565b610b8d8183610b4b565b15610bf9576040517f08c379a000000000000000000000000000000000000000000000000000000000815260206004820152600e60248201527f416c72656164792041646465642100000000000000000000000000000000000060448201526064015b60405180910390fd5b600280546040805160808101825282815260208101878152918101869052600060608201819052600184018555939093528251600483027f405787fa12a823e0f2b7631cc41b3ba8828b3321ca811111fa75cd3aa3bb5ace8101918255915192939290917f405787fa12a823e0f2b7631cc41b3ba8828b3321ca811111fa75cd3aa3bb5acf0190610c8a90826153d5565b5060408281015160028301556060909201516003918201556000858152600a60209081528382208683528152838220805460017fffffffffffffffffffffffffffffffffffffffffffffffffffffffffffffff009182168117909255600b8352858420878552909252939091208054909116909217909155805483908110610d1457610d146152a4565b600091825260208220600360069092020101805491610d328361534f565b919050555050505050565b60066000858152602001908152602001600020604051806060016040528060038681548110610d6e57610d6e6152a4565b90600052602060002090600602016001018054610d8a906152d3565b80601f0160208091040260200160405190810160405280929190818152602001828054610db6906152d3565b8015610e035780601f10610dd857610100808354040283529160200191610e03565b820191906000526020600020905b815481529060010190602001808311610de657829003601f168201915b5050505050815260200160028581548110610e2057610e206152a4565b90600052602060002090600402016001018054610e3c906152d3565b80601f0160208091040260200160405190810160405280929190818152602001828054610e68906152d3565b8015610eb55780601f10610e8a57610100808354040283529160200191610eb5565b820191906000526020600020905b815481529060010190602001808311610e9857829003601f168201915b505050918352505060209081018490528254600181018455600093845292208151919260030201908190610ee990826153d5565b5060208201516001820190610efe90826153d5565b5060408201518160020155505050505050565b6000610f1b612a3d565b610f2457600080fd5b3360009081526007602052604081205481548291908110610f4757610f476152a4565b90600052602060002090600802016040518061010001604052908160008201548152602001600182018054610f7b906152d3565b80601f0160208091040260200160405190810160405280929190818152602001828054610fa7906152d3565b8015610ff45780601f10610fc957610100808354040283529160200191610ff4565b820191906000526020600020905b815481529060010190602001808311610fd757829003601f168201915b5050505050815260200160028201805461100d906152d3565b80601f0160208091040260200160405190810160405280929190818152602001828054611039906152d3565b80156110865780601f1061105b57610100808354040283529160200191611086565b820191906000526020600020905b81548152906001019060200180831161106957829003601f168201915b5050505050815260200160038201805461109f906152d3565b80601f01602080910402602001604051908101604052809291908181526020018280546110cb906152d3565b80156111185780601f106110ed57610100808354040283529160200191611118565b820191906000526020600020905b8154815290600101906020018083116110fb57829003601f168201915b505050505081526020016004820154815260200160058201805461113b906152d3565b80601f0160208091040260200160405190810160405280929190818152602001828054611167906152d3565b80156111b45780601f10611189576101008083540402835291602001916111b4565b820191906000526020600020905b81548152906001019060200180831161119757829003601f168201915b505050505081526020016006820180546111cd906152d3565b80601f01602080910402602001604051908101604052809291908181526020018280546111f9906152d3565b80156112465780601f1061121b57610100808354040283529160200191611246565b820191906000526020600020905b81548152906001019060200180831161122957829003601f168201915b50505091835250506007919091015460ff161515602091820152604051919250600091611275918791016154f5565b6040516020818303038152906040528051906020012090508082608001511480156112ef5750836040516020016112ac9190615508565b6040516020818303038152906040528051906020012082602001516040516020016112d79190615508565b60405160208183030381529060405280519060200120145b156112ff57600192505050610b7d565b600092505050610b7d565b6000600380549050905060036040518060e001604052808381526020018481526020016000815260200160008152602001600015158152602001600015158152602001600760006113583390565b73ffffffffffffffffffffffffffffffffffffffff16815260208082019290925260400160009081205490925283546001818101865594835291819020835160069093020191825582015191929091908201906113b590826153d5565b50604082810151600283015560608301516003830155608083015160048301805460a08601511515610100027fffffffffffffffffffffffffffffffffffffffffffffffffffffffffffff00ff931515939093167fffffffffffffffffffffffffffffffffffffffffffffffffffffffffffff00009091161791909117905560c0909201516005909101558051808201909152601181527f4e6f6e65206f66207468652041626f7665000000000000000000000000000000602082015261147e90600083610b83565b5050565b60035460609060008167ffffffffffffffff8111156114a3576114a3614ae0565b60405190808252806020026020018201604052801561151857816020015b6115056040518060e0016040528060008152602001606081526020016000815260200160008152602001600015158152602001600015158152602001600081525090565b8152602001906001900390816114c15790505b509050600080611526614a89565b9050835b801561185157600361153d600183615524565b8154811061154d5761154d6152a4565b6000918252602082206004600690920201015460ff610100909104161515900361183f578115156001036116bd576003611588600183615524565b81548110611598576115986152a4565b90600052602060002090600602016040518060e0016040529081600082015481526020016001820180546115cb906152d3565b80601f01602080910402602001604051908101604052809291908181526020018280546115f7906152d3565b80156116445780601f1061161957610100808354040283529160200191611644565b820191906000526020600020905b81548152906001019060200180831161162757829003601f168201915b50505091835250506002820154602082015260038201546040820152600482015460ff80821615156060840152610100909104161515608082015260059091015460a090910152845185908590811061169f5761169f6152a4565b602002602001018190525082806116b59061534f565b93505061183f565b3360009081526007602052604090205460036116da600184615524565b815481106116ea576116ea6152a4565b9060005260206000209060060201600501540361183f57600361170e600183615524565b8154811061171e5761171e6152a4565b90600052602060002090600602016040518060e001604052908160008201548152602001600182018054611751906152d3565b80601f016020809104026020016040519081016040528092919081815260200182805461177d906152d3565b80156117ca5780601f1061179f576101008083540402835291602001916117ca565b820191906000526020600020905b8154815290600101906020018083116117ad57829003601f168201915b50505091835250506002820154602082015260038201546040820152600482015460ff80821615156060840152610100909104161515608082015260059091015460a0909101528451859085908110611825576118256152a4565b6020026020010181905250828061183b9061534f565b9350505b8061184981615537565b91505061152a565b5060008267ffffffffffffffff81111561186d5761186d614ae0565b6040519080825280602002602001820160405280156118e257816020015b6118cf6040518060e0016040528060008152602001606081526020016000815260200160008152602001600015158152602001600015158152602001600081525090565b81526020019060019003908161188b5790505b50905060005b8381101561193a57848181518110611902576119026152a4565b602002602001015182828151811061191c5761191c6152a4565b602002602001018190525080806119329061534f565b9150506118e8565b5095945050505050565b60025460609060009067ffffffffffffffff81111561196557611965614ae0565b6040519080825280602002602001820160405280156119c157816020015b6119ae6040518060800160405280600081526020016060815260200160008152602001600081525090565b8152602001906001900390816119835790505b5090506000805b600254811015611b12576000858152600b6020908152604080832084845290915290205460ff161515600103611b005760028181548110611a0b57611a0b6152a4565b906000526020600020906004020160405180608001604052908160008201548152602001600182018054611a3e906152d3565b80601f0160208091040260200160405190810160405280929190818152602001828054611a6a906152d3565b8015611ab75780601f10611a8c57610100808354040283529160200191611ab7565b820191906000526020600020905b815481529060010190602001808311611a9a57829003601f168201915b5050505050815260200160028201548152602001600382015481525050838381518110611ae657611ae66152a4565b60200260200101819052508180611afc9061534f565b9250505b80611b0a8161534f565b9150506119c8565b5060008167ffffffffffffffff811115611b2e57611b2e614ae0565b604051908082528060200260200182016040528015611b8a57816020015b611b776040518060800160405280600081526020016060815260200160008152602001600081525090565b815260200190600190039081611b4c5790505b50905060005b82811015611be257838181518110611baa57611baa6152a4565b6020026020010151828281518110611bc457611bc46152a4565b60200260200101819052508080611bda9061534f565b915050611b90565b50949350505050565b611c166040518060800160405280600081526020016060815260200160008152602001600081525090565b60008281526005602052604090205460ff1615611d02576004600083815260200190815260200160002060405180608001604052908160008201548152602001600182018054611c65906152d3565b80601f0160208091040260200160405190810160405280929190818152602001828054611c91906152d3565b8015611cde5780601f10611cb357610100808354040283529160200191611cde565b820191906000526020600020905b815481529060010190602001808311611cc157829003601f168201915b50505050508152602001600282015481526020016003820154815250509050919050565b6040518060800160405280600081526020016040518060400160405280600481526020017f6e756c6c0000000000000000000000000000000000000000000000000000000081525081526020016000815260200160008152509050919050565b919050565b80604051602001611d7891906154f5565b60405160208183030381529060405280519060200120600060076000611d9b3390565b73ffffffffffffffffffffffffffffffffffffffff1673ffffffffffffffffffffffffffffffffffffffff1681526020019081526020016000205481548110611de657611de66152a4565b90600052602060002090600802016004018190555050565b336000908152600760205260409020548314611e76576040517f08c379a000000000000000000000000000000000000000000000000000000000815260206004820152601d60248201527f556e617574686f72697a656420616363657373206465746563746564210000006044820152606401610bf0565b6000838152600d6020908152604080832085845290915290205460ff1615611efa576040517f08c379a000000000000000000000000000000000000000000000000000000000815260206004820152600e60248201527f416c726561647920566f746564210000000000000000000000000000000000006044820152606401610bf0565b6000838152600e602090815260408083208584528252808320849055858352600d8252808320858452909152902080547fffffffffffffffffffffffffffffffffffffffffffffffffffffffffffffff001660011790556002805482908110611f6557611f656152a4565b600091825260208220600360049092020101805491611f838361534f565b919050555060038281548110611f9b57611f9b6152a4565b600091825260208220600260069092020101805491611fb98361534f565b9190505550611fca83838342610d3d565b505050565b600160008281548110611fe457611fe46152a4565b906000526020600020906008020160070160006101000a81548160ff021916908315150217905550600160008281548110612021576120216152a4565b6000918252602080832084546001818101875595855291909320600892830290930180549190920290920191825591818101906120609084018261556c565b506002818101906120739084018261556c565b506003818101906120869084018261556c565b5060048201548160040155600582018160050190816120a5919061556c565b506006818101906120b89084018261556c565b50600791820154910180547fffffffffffffffffffffffffffffffffffffffffffffffffffffffffffffff001660ff909216151591909117905550565b6000838152600a60209081526040808320858452808352818420805460ff808216157fffffffffffffffffffffffffffffffffffffffffffffffffffffffffffffff00928316178355600b865284872088885286529386208054808616159216919091179055868552925290541615159003611fca576003828154811061217e5761217e6152a4565b60009182526020822060036006909202010180549161219c83615537565b9190505550505050565b60035460609060009067ffffffffffffffff8111156121c7576121c7614ae0565b60405190808252806020026020018201604052801561223c57816020015b6122296040518060e0016040528060008152602001606081526020016000815260200160008152602001600015158152602001600015158152602001600081525090565b8152602001906001900390816121e55790505b5090506000805b6003548110156123b9576000818152600c6020908152604080832088845290915290205460ff1615156001036123a75760038181548110612286576122866152a4565b90600052602060002090600602016040518060e0016040529081600082015481526020016001820180546122b9906152d3565b80601f01602080910402602001604051908101604052809291908181526020018280546122e5906152d3565b80156123325780601f1061230757610100808354040283529160200191612332565b820191906000526020600020905b81548152906001019060200180831161231557829003601f168201915b50505091835250506002820154602082015260038201546040820152600482015460ff80821615156060840152610100909104161515608082015260059091015460a090910152835184908490811061238d5761238d6152a4565b602002602001018190525081806123a39061534f565b9250505b806123b18161534f565b915050612243565b5060008167ffffffffffffffff8111156123d5576123d5614ae0565b60405190808252806020026020018201604052801561244a57816020015b6124376040518060e0016040528060008152602001606081526020016000815260200160008152602001600015158152602001600015158152602001600081525090565b8152602001906001900390816123f35790505b50905060005b82811015611be25783818151811061246a5761246a6152a4565b6020026020010151828281518110612484576124846152a4565b6020026020010181905250808061249a9061534f565b915050612450565b6000816040516020016124b591906154f5565b604051602081830303815290604052805190602001209050919050565b600080546060919067ffffffffffffffff8111156124f2576124f2614ae0565b60405190808252806020026020018201604052801561257057816020015b61255d604051806101000160405280600081526020016060815260200160608152602001606081526020016000801916815260200160608152602001606081526020016000151581525090565b8152602001906001900390816125105790505b5090506000805b60005481101561294b5760008181548110612594576125946152a4565b600091825260209091206007600890920201015460ff16151560011480156125da57506000858152600c6020908152604080832084845290915290205460ff1615156001145b1561293957600081815481106125f2576125f26152a4565b90600052602060002090600802016040518061010001604052908160008201548152602001600182018054612626906152d3565b80601f0160208091040260200160405190810160405280929190818152602001828054612652906152d3565b801561269f5780601f106126745761010080835404028352916020019161269f565b820191906000526020600020905b81548152906001019060200180831161268257829003601f168201915b505050505081526020016002820180546126b8906152d3565b80601f01602080910402602001604051908101604052809291908181526020018280546126e4906152d3565b80156127315780601f1061270657610100808354040283529160200191612731565b820191906000526020600020905b81548152906001019060200180831161271457829003601f168201915b5050505050815260200160038201805461274a906152d3565b80601f0160208091040260200160405190810160405280929190818152602001828054612776906152d3565b80156127c35780601f10612798576101008083540402835291602001916127c3565b820191906000526020600020905b8154815290600101906020018083116127a657829003601f168201915b50505050508152602001600482015481526020016005820180546127e6906152d3565b80601f0160208091040260200160405190810160405280929190818152602001828054612812906152d3565b801561285f5780601f106128345761010080835404028352916020019161285f565b820191906000526020600020905b81548152906001019060200180831161284257829003601f168201915b50505050508152602001600682018054612878906152d3565b80601f01602080910402602001604051908101604052809291908181526020018280546128a4906152d3565b80156128f15780601f106128c6576101008083540402835291602001916128f1565b820191906000526020600020905b8154815290600101906020018083116128d457829003601f168201915b50505091835250506007919091015460ff161515602090910152835184908490811061291f5761291f6152a4565b602002602001018190525081806129359061534f565b9250505b806129438161534f565b915050612577565b5060008167ffffffffffffffff81111561296757612967614ae0565b6040519080825280602002602001820160405280156129e557816020015b6129d2604051806101000160405280600081526020016060815260200160608152602001606081526020016000801916815260200160608152602001606081526020016000151581525090565b8152602001906001900390816129855790505b50905060005b82811015611be257838181518110612a0557612a056152a4565b6020026020010151828281518110612a1f57612a1f6152a4565b60200260200101819052508080612a359061534f565b9150506129eb565b3360009081526008602052604081205460ff161515600103612a5f5750600190565b50600090565b60035460609060009067ffffffffffffffff811115612a8657612a86614ae0565b604051908082528060200260200182016040528015612afb57816020015b612ae86040518060e0016040528060008152602001606081526020016000815260200160008152602001600015158152602001600015158152602001600081525090565b815260200190600190039081612aa45790505b509050600080612b09614a89565b905060005b600354811015612e475760038181548110612b2b57612b2b6152a4565b600091825260209091206004600690920201015460ff1615156001148015612b7f575060038181548110612b6157612b616152a4565b6000918252602090912060069091020160040154610100900460ff16155b15612e3557811515600103612cc65760038181548110612ba157612ba16152a4565b90600052602060002090600602016040518060e001604052908160008201548152602001600182018054612bd4906152d3565b80601f0160208091040260200160405190810160405280929190818152602001828054612c00906152d3565b8015612c4d5780601f10612c2257610100808354040283529160200191612c4d565b820191906000526020600020905b815481529060010190602001808311612c3057829003601f168201915b50505091835250506002820154602082015260038201546040820152600482015460ff80821615156060840152610100909104161515608082015260059091015460a0909101528451859085908110612ca857612ca86152a4565b60200260200101819052508280612cbe9061534f565b935050612e35565b336000908152600760205260409020546003805483908110612cea57612cea6152a4565b90600052602060002090600602016005015403612e355760038181548110612d1457612d146152a4565b90600052602060002090600602016040518060e001604052908160008201548152602001600182018054612d47906152d3565b80601f0160208091040260200160405190810160405280929190818152602001828054612d73906152d3565b8015612dc05780601f10612d9557610100808354040283529160200191612dc0565b820191906000526020600020905b815481529060010190602001808311612da357829003601f168201915b50505091835250506002820154602082015260038201546040820152600482015460ff80821615156060840152610100909104161515608082015260059091015460a0909101528451859085908110612e1b57612e1b6152a4565b60200260200101819052508280612e319061534f565b9350505b80612e3f8161534f565b915050612b0e565b5060008267ffffffffffffffff811115612e6357612e63614ae0565b604051908082528060200260200182016040528015612ed857816020015b612ec56040518060e0016040528060008152602001606081526020016000815260200160008152602001600015158152602001600015158152602001600081525090565b815260200190600190039081612e815790505b50905060005b83811015611be257848181518110612ef857612ef86152a4565b6020026020010151828281518110612f1257612f126152a4565b60200260200101819052508080612f289061534f565b915050612ede565b612f7d604051806101000160405280600081526020016060815260200160608152602001606081526020016000801916815260200160608152602001606081526020016000151581525090565b3360009081526008602052604090205460ff161515600114612ffb576040517f08c379a000000000000000000000000000000000000000000000000000000000815260206004820152601360248201527f5573657220646f6573206e6f74206578697374000000000000000000000000006044820152606401610bf0565b336000908152600760205260408120548154811061301b5761301b6152a4565b9060005260206000209060080201604051806101000160405290816000820154815260200160018201805461304f906152d3565b80601f016020809104026020016040519081016040528092919081815260200182805461307b906152d3565b80156130c85780601f1061309d576101008083540402835291602001916130c8565b820191906000526020600020905b8154815290600101906020018083116130ab57829003601f168201915b505050505081526020016002820180546130e1906152d3565b80601f016020809104026020016040519081016040528092919081815260200182805461310d906152d3565b801561315a5780601f1061312f5761010080835404028352916020019161315a565b820191906000526020600020905b81548152906001019060200180831161313d57829003601f168201915b50505050508152602001600382018054613173906152d3565b80601f016020809104026020016040519081016040528092919081815260200182805461319f906152d3565b80156131ec5780601f106131c1576101008083540402835291602001916131ec565b820191906000526020600020905b8154815290600101906020018083116131cf57829003601f168201915b505050505081526020016004820154815260200160058201805461320f906152d3565b80601f016020809104026020016040519081016040528092919081815260200182805461323b906152d3565b80156132885780601f1061325d57610100808354040283529160200191613288565b820191906000526020600020905b81548152906001019060200180831161326b57829003601f168201915b505050505081526020016006820180546132a1906152d3565b80601f01602080910402602001604051908101604052809291908181526020018280546132cd906152d3565b801561331a5780601f106132ef5761010080835404028352916020019161331a565b820191906000526020600020905b8154815290600101906020018083116132fd57829003601f168201915b50505091835250506007919091015460ff161515602090910152919050565b600080546060919067ffffffffffffffff81111561335957613359614ae0565b6040519080825280602002602001820160405280156133d757816020015b6133c4604051806101000160405280600081526020016060815260200160608152602001606081526020016000801916815260200160608152602001606081526020016000151581525090565b8152602001906001900390816133775790505b5090506000805b6000548110156137b357600081815481106133fb576133fb6152a4565b600091825260209091206007600890920201015460ff161515600114801561344257506000858152600c6020908152604080832084845290915290205460ff161515600114155b156137a1576000818154811061345a5761345a6152a4565b9060005260206000209060080201604051806101000160405290816000820154815260200160018201805461348e906152d3565b80601f01602080910402602001604051908101604052809291908181526020018280546134ba906152d3565b80156135075780601f106134dc57610100808354040283529160200191613507565b820191906000526020600020905b8154815290600101906020018083116134ea57829003601f168201915b50505050508152602001600282018054613520906152d3565b80601f016020809104026020016040519081016040528092919081815260200182805461354c906152d3565b80156135995780601f1061356e57610100808354040283529160200191613599565b820191906000526020600020905b81548152906001019060200180831161357c57829003601f168201915b505050505081526020016003820180546135b2906152d3565b80601f01602080910402602001604051908101604052809291908181526020018280546135de906152d3565b801561362b5780601f106136005761010080835404028352916020019161362b565b820191906000526020600020905b81548152906001019060200180831161360e57829003601f168201915b505050505081526020016004820154815260200160058201805461364e906152d3565b80601f016020809104026020016040519081016040528092919081815260200182805461367a906152d3565b80156136c75780601f1061369c576101008083540402835291602001916136c7565b820191906000526020600020905b8154815290600101906020018083116136aa57829003601f168201915b505050505081526020016006820180546136e0906152d3565b80601f016020809104026020016040519081016040528092919081815260200182805461370c906152d3565b80156137595780601f1061372e57610100808354040283529160200191613759565b820191906000526020600020905b81548152906001019060200180831161373c57829003601f168201915b50505091835250506007919091015460ff1615156020909101528351849084908110613787576137876152a4565b6020026020010181905250818061379d9061534f565b9250505b806137ab8161534f565b9150506133de565b5060008167ffffffffffffffff8111156137cf576137cf614ae0565b60405190808252806020026020018201604052801561384d57816020015b61383a604051806101000160405280600081526020016060815260200160608152602001606081526020016000801916815260200160608152602001606081526020016000151581525090565b8152602001906001900390816137ed5790505b50905060005b82811015611be25783818151811061386d5761386d6152a4565b6020026020010151828281518110613887576138876152a4565b6020026020010181905250808061389d9061534f565b915050613853565b60035460609060009067ffffffffffffffff8111156138c6576138c6614ae0565b60405190808252806020026020018201604052801561393b57816020015b6139286040518060e0016040528060008152602001606081526020016000815260200160008152602001600015158152602001600015158152602001600081525090565b8152602001906001900390816138e45790505b5090506000805b600354811015613b28576003818154811061395f5761395f6152a4565b600091825260209091206004600690920201015460ff16151560011480156139b3575060038181548110613995576139956152a4565b6000918252602090912060069091020160040154610100900460ff16155b80156139dd57506000818152600c6020908152604080832088845290915290205460ff1615156001145b15613b1657600381815481106139f5576139f56152a4565b90600052602060002090600602016040518060e001604052908160008201548152602001600182018054613a28906152d3565b80601f0160208091040260200160405190810160405280929190818152602001828054613a54906152d3565b8015613aa15780601f10613a7657610100808354040283529160200191613aa1565b820191906000526020600020905b815481529060010190602001808311613a8457829003601f168201915b50505091835250506002820154602082015260038201546040820152600482015460ff80821615156060840152610100909104161515608082015260059091015460a0909101528351849084908110613afc57613afc6152a4565b60200260200101819052508180613b129061534f565b9250505b80613b208161534f565b915050613942565b5060008167ffffffffffffffff811115613b4457613b44614ae0565b604051908082528060200260200182016040528015613bb957816020015b613ba66040518060e0016040528060008152602001606081526020016000815260200160008152602001600015158152602001600015158152602001600081525090565b815260200190600190039081613b625790505b50905060005b82811015611be257838181518110613bd957613bd96152a4565b6020026020010151828281518110613bf357613bf36152a4565b60200260200101819052508080613c099061534f565b915050613bbf565b60038181548110613c2457613c246152a4565b906000526020600020906006020160040160009054906101000a900460ff161560038281548110613c5757613c576152a4565b6000918252602090912060069091020160040180547fffffffffffffffffffffffffffffffffffffffffffffffffffffffffffffff001691151591909117905550565b60015460609060009067ffffffffffffffff811115613cbb57613cbb614ae0565b604051908082528060200260200182016040528015613d3957816020015b613d26604051806101000160405280600081526020016060815260200160608152602001606081526020016000801916815260200160608152602001606081526020016000151581525090565b815260200190600190039081613cd95790505b50905060005b6001548110156140a75760018181548110613d5c57613d5c6152a4565b90600052602060002090600802016040518061010001604052908160008201548152602001600182018054613d90906152d3565b80601f0160208091040260200160405190810160405280929190818152602001828054613dbc906152d3565b8015613e095780601f10613dde57610100808354040283529160200191613e09565b820191906000526020600020905b815481529060010190602001808311613dec57829003601f168201915b50505050508152602001600282018054613e22906152d3565b80601f0160208091040260200160405190810160405280929190818152602001828054613e4e906152d3565b8015613e9b5780601f10613e7057610100808354040283529160200191613e9b565b820191906000526020600020905b815481529060010190602001808311613e7e57829003601f168201915b50505050508152602001600382018054613eb4906152d3565b80601f0160208091040260200160405190810160405280929190818152602001828054613ee0906152d3565b8015613f2d5780601f10613f0257610100808354040283529160200191613f2d565b820191906000526020600020905b815481529060010190602001808311613f1057829003601f168201915b5050505050815260200160048201548152602001600582018054613f50906152d3565b80601f0160208091040260200160405190810160405280929190818152602001828054613f7c906152d3565b8015613fc95780601f10613f9e57610100808354040283529160200191613fc9565b820191906000526020600020905b815481529060010190602001808311613fac57829003601f168201915b50505050508152602001600682018054613fe2906152d3565b80601f016020809104026020016040519081016040528092919081815260200182805461400e906152d3565b801561405b5780601f106140305761010080835404028352916020019161405b565b820191906000526020600020905b81548152906001019060200180831161403e57829003601f168201915b50505091835250506007919091015460ff1615156020909101528251839083908110614089576140896152a4565b6020026020010181905250808061409f9061534f565b915050613d3f565b50919050565b600080546060919067ffffffffffffffff8111156140cd576140cd614ae0565b60405190808252806020026020018201604052801561414b57816020015b614138604051806101000160405280600081526020016060815260200160608152602001606081526020016000801916815260200160608152602001606081526020016000151581525090565b8152602001906001900390816140eb5790505b5090506000805b6000548110156144f9576000818154811061416f5761416f6152a4565b6000918252602082206007600890920201015460ff16151590036144e757600081815481106141a0576141a06152a4565b906000526020600020906008020160405180610100016040529081600082015481526020016001820180546141d4906152d3565b80601f0160208091040260200160405190810160405280929190818152602001828054614200906152d3565b801561424d5780601f106142225761010080835404028352916020019161424d565b820191906000526020600020905b81548152906001019060200180831161423057829003601f168201915b50505050508152602001600282018054614266906152d3565b80601f0160208091040260200160405190810160405280929190818152602001828054614292906152d3565b80156142df5780601f106142b4576101008083540402835291602001916142df565b820191906000526020600020905b8154815290600101906020018083116142c257829003601f168201915b505050505081526020016003820180546142f8906152d3565b80601f0160208091040260200160405190810160405280929190818152602001828054614324906152d3565b80156143715780601f1061434657610100808354040283529160200191614371565b820191906000526020600020905b81548152906001019060200180831161435457829003601f168201915b5050505050815260200160048201548152602001600582018054614394906152d3565b80601f01602080910402602001604051908101604052809291908181526020018280546143c0906152d3565b801561440d5780601f106143e25761010080835404028352916020019161440d565b820191906000526020600020905b8154815290600101906020018083116143f057829003601f168201915b50505050508152602001600682018054614426906152d3565b80601f0160208091040260200160405190810160405280929190818152602001828054614452906152d3565b801561449f5780601f106144745761010080835404028352916020019161449f565b820191906000526020600020905b81548152906001019060200180831161448257829003601f168201915b50505091835250506007919091015460ff16151560209091015283518490849081106144cd576144cd6152a4565b602002602001018190525081806144e39061534f565b9250505b806144f18161534f565b915050614152565b5060008167ffffffffffffffff81111561451557614515614ae0565b60405190808252806020026020018201604052801561459357816020015b614580604051806101000160405280600081526020016060815260200160608152602001606081526020016000801916815260200160608152602001606081526020016000151581525090565b8152602001906001900390816145335790505b50905060005b828110156145eb578381815181106145b3576145b36152a4565b60200260200101518282815181106145cd576145cd6152a4565b602002602001018190525080806145e39061534f565b915050614599565b509392505050565b600160038281548110614608576146086152a4565b906000526020600020906006020160040160016101000a81548160ff02191690831515021790555050565b606060066000838152602001908152602001600020805480602002602001604051908101604052809291908181526020016000905b828210156147c8578382906000526020600020906003020160405180606001604052908160008201805461469b906152d3565b80601f01602080910402602001604051908101604052809291908181526020018280546146c7906152d3565b80156147145780601f106146e957610100808354040283529160200191614714565b820191906000526020600020905b8154815290600101906020018083116146f757829003601f168201915b5050505050815260200160018201805461472d906152d3565b80601f0160208091040260200160405190810160405280929190818152602001828054614759906152d3565b80156147a65780601f1061477b576101008083540402835291602001916147a6565b820191906000526020600020905b81548152906001019060200180831161478957829003601f168201915b5050505050815260200160028201548152505081526020019060010190614668565b505050509050919050565b606081018051906147e38261534f565b90525060008281526004602090815260409091208251815590820151829190600182019061481190826153d5565b5060408281015160028301556060909201516003909101556000928352600560205290912080547fffffffffffffffffffffffffffffffffffffffffffffffffffffffffffffff0016600117905550565b61486a612a3d565b156148d1576040517f08c379a000000000000000000000000000000000000000000000000000000000815260206004820152601360248201527f416c7265616479205265676973746572656421000000000000000000000000006044820152606401610bf0565b60008054906148df866124a2565b3360009081526007602090815260408083208690558583526009825280832080547fffffffffffffffffffffffffffffffffffffffffffffffffffffffffffffff001690558051610100810182528681529182018d81529082018c9052606082018b90526080820184905260a0820189905260c0820188905286151560e08301528254600181018455928052815160089093027f290decd9548b62a8d60345a988386fc84ba6bc95484008f6362f93160ef3e5638101938455905193945090927f290decd9548b62a8d60345a988386fc84ba6bc95484008f6362f93160ef3e564909101906149ce90826153d5565b50604082015160028201906149e390826153d5565b50606082015160038201906149f890826153d5565b506080820151600482015560a08201516005820190614a1790826153d5565b5060c08201516006820190614a2c90826153d5565b5060e09190910151600790910180549115157fffffffffffffffffffffffffffffffffffffffffffffffffffffffffffffff0092831617905533600090815260086020526040902080549091166001179055505050505050505050565b336000908152600760205260408120548103612a5f5750600190565b600060208284031215614ab757600080fd5b5035919050565b60008060408385031215614ad157600080fd5b50508035926020909101359150565b7f4e487b7100000000000000000000000000000000000000000000000000000000600052604160045260246000fd5b600082601f830112614b2057600080fd5b813567ffffffffffffffff80821115614b3b57614b3b614ae0565b604051601f83017fffffffffffffffffffffffffffffffffffffffffffffffffffffffffffffffe0908116603f01168101908282118183101715614b8157614b81614ae0565b81604052838152866020858801011115614b9a57600080fd5b836020870160208301376000602085830101528094505050505092915050565b600080600060608486031215614bcf57600080fd5b833567ffffffffffffffff811115614be657600080fd5b614bf286828701614b0f565b9660208601359650604090950135949350505050565b60008060008060808587031215614c1e57600080fd5b5050823594602084013594506040840135936060013592509050565b60008060408385031215614c4d57600080fd5b823567ffffffffffffffff80821115614c6557600080fd5b614c7186838701614b0f565b93506020850135915080821115614c8757600080fd5b50614c9485828601614b0f565b9150509250929050565b600060208284031215614cb057600080fd5b813567ffffffffffffffff811115614cc757600080fd5b614cd384828501614b0f565b949350505050565b60005b83811015614cf6578181015183820152602001614cde565b50506000910152565b60008151808452614d17816020860160208601614cdb565b601f017fffffffffffffffffffffffffffffffffffffffffffffffffffffffffffffffe0169290920160200192915050565b60208082528251828201819052600091906040908185019080840286018301878501865b83811015614e03577fffffffffffffffffffffffffffffffffffffffffffffffffffffffffffffffc0898403018552815160e08151855288820151818a870152614db982870182614cff565b838a0151878b01526060808501519088015260808085015115159088015260a08085015115159088015260c093840151939096019290925250509386019390860190600101614d6d565b509098975050505050505050565b805182526000602082015160806020850152614e306080850182614cff565b905060408301516040850152606083015160608501528091505092915050565b600060208083018184528085518083526040860191506040848202870101925083870160005b82811015614ec2577fffffffffffffffffffffffffffffffffffffffffffffffffffffffffffffffc0888603018452614eb0858351614e11565b94509285019290850190600101614e76565b5092979650505050505050565b602081526000614ee26020830184614e11565b9392505050565b600080600060608486031215614efe57600080fd5b505081359360208301359350604090920135919050565b6000610100825184526020830151816020860152614f3582860182614cff565b91505060408301518482036040860152614f4f8282614cff565b91505060608301518482036060860152614f698282614cff565b9150506080830151608085015260a083015184820360a0860152614f8d8282614cff565b91505060c083015184820360c0860152614fa78282614cff565b91505060e08301516145eb60e086018215159052565b600060208083018184528085518083526040860191506040848202870101925083870160005b82811015614ec2577fffffffffffffffffffffffffffffffffffffffffffffffffffffffffffffffc088860301845261501d858351614f15565b94509285019290850190600101614fe3565b602081526000614ee26020830184614f15565b60208082528251828201819052600091906040908185019080840286018301878501865b83811015614e03577fffffffffffffffffffffffffffffffffffffffffffffffffffffffffffffffc08984030185528151606081518186526150aa82870182614cff565b915050888201518582038a8701526150c28282614cff565b92890151958901959095525094870194925090860190600101615066565b600080604083850312156150f357600080fd5b82359150602083013567ffffffffffffffff8082111561511257600080fd5b908401906080828703121561512657600080fd5b60405160808101818110838211171561514157615141614ae0565b6040528235815260208301358281111561515a57600080fd5b61516688828601614b0f565b60208301525060408301356040820152606083013560608201528093505050509250929050565b80358015158114611d6257600080fd5b600080600080600080600060e0888a0312156151b857600080fd5b873567ffffffffffffffff808211156151d057600080fd5b6151dc8b838c01614b0f565b985060208a01359150808211156151f257600080fd5b6151fe8b838c01614b0f565b975060408a013591508082111561521457600080fd5b6152208b838c01614b0f565b965060608a013591508082111561523657600080fd5b6152428b838c01614b0f565b955060808a013591508082111561525857600080fd5b6152648b838c01614b0f565b945060a08a013591508082111561527a57600080fd5b506152878a828b01614b0f565b92505061529660c0890161518d565b905092959891949750929550565b7f4e487b7100000000000000000000000000000000000000000000000000000000600052603260045260246000fd5b6002810460018216806152e757607f821691505b6020821081036140a7577f4e487b7100000000000000000000000000000000000000000000000000000000600052602260045260246000fd5b7f4e487b7100000000000000000000000000000000000000000000000000000000600052601160045260246000fd5b60007fffffffffffffffffffffffffffffffffffffffffffffffffffffffffffffffff820361538057615380615320565b5060010190565b601f821115611fca576000818152602081206020601f860104810160208610156153ae5750805b6020601f860104820191505b818110156153cd578281556001016153ba565b505050505050565b815167ffffffffffffffff8111156153ef576153ef614ae0565b615403816153fd84546152d3565b84615387565b602080601f83116001811461545a57600084156154205750858301515b60028086026008870290910a7fffffffffffffffffffffffffffffffffffffffffffffffffffffffffffffffff04198216178655506153cd565b6000858152602081207fffffffffffffffffffffffffffffffffffffffffffffffffffffffffffffffe08616915b828110156154a757888601518255948401946001909101908401615488565b50858210156154e557878501516008601f88160260020a7fffffffffffffffffffffffffffffffffffffffffffffffffffffffffffffffff04191681555b5050505050600202600101905550565b602081526000614ee26020830184614cff565b6000825161551a818460208701614cdb565b9190910192915050565b81810381811115610b7d57610b7d615320565b60008161554657615546615320565b507fffffffffffffffffffffffffffffffffffffffffffffffffffffffffffffffff0190565b818103615577575050565b61558182546152d3565b67ffffffffffffffff81111561559957615599614ae0565b6155a7816153fd84546152d3565b6000601f8211600181146155fd57600083156155c35750848201545b60028085026008860290910a7fffffffffffffffffffffffffffffffffffffffffffffffffffffffffffffffff04198216178555506156a0565b6000858152602090207fffffffffffffffffffffffffffffffffffffffffffffffffffffffffffffffe0841690600086815260209020845b838110156156555782860154825560019586019590910190602001615635565b508583101561569357818501546008601f88160260020a7fffffffffffffffffffffffffffffffffffffffffffffffffffffffffffffffff04191681555b5050506001600284020184555b505050505056fea26469706673582212202b6d45d90ee0f2c454b575f8207372bd01d176210cc2c6a8160167f00902559864736f6c634300081100336425346335306532646241352665642664643930552632642d525d373364315d576337332b35347539624b78343536373269623236663070314e6d6b5f2b323063706443286235373132",
  "immutableReferences": {},
  "source": "// SPDX-License-Identifier: MIT\npragma solidity 0.8.17;\n\ncontract Voters {\n  event getWinnerArr(Candidate[] res);\n  \n  struct User{\n    uint id;\n    string aadhar;\n    string name;\n    string email;\n    bytes32 pass;\n    string cid;\n    string key;\n    bool isValidated;\n  }\n\n  struct Candidate{\n    uint id;\n    string name;\n    uint256 regNo;\n    uint voteCount;\n  }\n\n  struct Election{\n    uint id;\n    string name;\n    uint256 totalVote;\n    uint candidateCount;\n    bool isActive;\n    bool deleted;\n    uint createdBy;\n  }\n\n  struct History{\n    string poll;\n    string candidate;\n    uint256 time;\n  }\n\n  User[] private userlist;\n  User[] private voterList;\n  Candidate[] private candidateList;\n  Election[] private electionList;\n\n  mapping (uint=>Candidate) electionWinner;\n  mapping (uint=>bool) winnerMapped;\n  mapping (uint=>History[]) userHistory;\n  mapping (address=>uint) UserToId;\n  mapping (address=>bool) userExists;\n  mapping (uint=>bool) UserRole;\n  mapping (uint=>mapping(uint=>bool)) candidateMap;\n  mapping (uint=>mapping(uint=>bool)) electionToCandidate;\n  mapping (uint=>mapping(uint=>bool)) userToElection;\n  mapping (uint=>mapping(uint=>bool)) userVote;\n  mapping (uint=>mapping(uint=>uint)) userElectionCandidateMap;\n\n  constructor(){\n    string memory hsh=\"d%4c50e2dbA5&ed&dd90U&2d-R]73d1]Wc73+54u9bKx45672ib26f0p1Nmk_+20cpdC(b5712\";\n    address addr=0xCDbD5B3D6347eedbDC0149bF920527D525412D25;\n    userlist.push(User(0,\"000000000000\",\"Admin\",\"admin@admin.admin\",collisionHash(hsh),'0','MRSDSMCVGJSFENZT',true));\n    voterList.push(userlist[0]);\n    UserRole[0]=true;\n    UserToId[addr]=0;\n    userExists[addr]=true;\n  }\n\n  function mapUserToElection(uint electionID,uint userID) external{\n    userToElection[electionID][userID]=true;\n  }\n\n  function removeUserElectionMap(uint electionID,uint userID) external{\n    userToElection[electionID][userID]=false;\n  }\n\n  function getUnaddedUserToElection(uint electionID) external view returns(User[] memory){\n    User[] memory temp=new User[](userlist.length);\n    uint counter=0;\n    for(uint i=0;i<userlist.length;i++){\n      if(userlist[i].isValidated==true && userToElection[electionID][i]!=true){\n        temp[counter]=userlist[i];\n        counter++;\n      }\n    }\n    User[] memory result=new User[](counter);\n    for(uint i=0;i<counter;i++){\n      result[i]=temp[i];\n    }\n    return result;\n  }\n\n  function getAddedUserToElection(uint electionID) external view returns(User[] memory){\n    User[] memory temp=new User[](userlist.length);\n    uint counter=0;\n    for(uint i=0;i<userlist.length;i++){\n      if(userlist[i].isValidated==true && userToElection[electionID][i]==true){\n        temp[counter]=userlist[i];\n        counter++;\n      }\n    }\n    User[] memory result=new User[](counter);\n    for(uint i=0;i<counter;i++){\n      result[i]=temp[i];\n    }\n    return result;\n  }\n\n  function isCandidateMapped(uint electionID,uint regNo) public view returns (bool){\n    if(candidateMap[regNo][electionID]==true){\n      return true;\n    }\n    else{\n      return false;\n    }\n  }\n\n  function getCandidates(uint id) external view returns(Candidate[] memory){\n    Candidate[] memory temp=new Candidate[](candidateList.length);\n    uint counter=0;\n    for(uint i=0;i<candidateList.length;i++){\n      if(electionToCandidate[id][i]==true){\n        temp[counter]=candidateList[i];\n        counter++;\n      }\n    }\n    Candidate[] memory result=new Candidate[](counter);\n    for(uint i=0;i<counter;i++){\n      result[i]=temp[i];\n    }\n    return result;\n  }\n\n  function mapCandidate(uint256 regNo,uint electionID,uint candidateID) external{\n    candidateMap[regNo][electionID]=!candidateMap[regNo][electionID];\n    electionToCandidate[electionID][candidateID]=!electionToCandidate[electionID][candidateID];\n    if(candidateMap[regNo][electionID]==false){\n      electionList[electionID].candidateCount--;\n    }\n  }\n\n  function addCandidate(string memory name,uint256 regNo,uint electionID) public{\n    require(!isCandidateMapped(electionID,regNo),\"Already Added!\");\n    uint candidateID=candidateList.length;\n    candidateList.push(Candidate(candidateID,name,regNo,0));\n    candidateMap[regNo][electionID]=true;\n    electionToCandidate[electionID][candidateID]=true;\n    electionList[electionID].candidateCount++;\n  }\n\n  function removeElection(uint id) external{\n    electionList[id].deleted=true;\n  }\n\n  function addElection(string memory name) external {\n    uint ID=electionList.length;\n    electionList.push(Election(ID,name,0,0,false,false,UserToId[getSender()]));\n    addCandidate(\"None of the Above\",0,ID);\n  }\n\n  function auditElections(uint id)external{\n      electionList[id].isActive=!electionList[id].isActive;\n  }\n\n  function isAdminMain() private view returns (bool){\n    if(UserToId[getSender()]==0)\n      return true;\n    else\n      return false;\n  }\n\n  function getElectionList() external view returns(Election[] memory){\n    uint cnt=electionList.length;\n    Election[] memory temp=new Election[](cnt);\n    uint counter=0;\n    bool flag=isAdminMain();\n    for(uint i=cnt;i>0;i--){\n      if(electionList[i-1].deleted==false){\n        if(flag==true){\n          temp[counter]=electionList[i-1];\n          counter++;\n        }\n        else if(electionList[i-1].createdBy==UserToId[getSender()]){\n          temp[counter]=electionList[i-1];\n          counter++;\n        }\n      }\n    }\n    Election[] memory result=new Election[](counter);\n    for(uint i=0;i<counter;i++){\n      result[i]=temp[i];\n    }\n    return result;\n  }\n\n  function getActiveElections() external view returns(Election[] memory){\n    Election[] memory temp=new Election[](electionList.length);\n    uint counter=0;\n    bool flag=isAdminMain();\n    for(uint i=0;i<electionList.length;i++){\n      if(electionList[i].isActive==true && electionList[i].deleted==false){\n        if(flag==true){\n          temp[counter]=electionList[i];\n          counter++;\n        }\n        else if(electionList[i].createdBy==UserToId[getSender()]){\n          temp[counter]=electionList[i];\n          counter++;\n        }\n      }\n    }\n    Election[] memory result=new Election[](counter);\n    for(uint i=0;i<counter;i++){\n      result[i]=temp[i];\n    }\n    return result;\n  }\n\n  function isUserRegistered() public view returns (bool){\n    if(userExists[getSender()]==true){\n      return true;\n    }\n    else{\n      return false;\n    }\n  }\n\n  function loginUser(string memory pass,string memory aadhar) external view returns (bool){\n    require(isUserRegistered());\n    User memory tmp=userlist[UserToId[getSender()]];\n    bytes32 chkHash=keccak256(abi.encode(pass));\n    if(tmp.pass==chkHash && (keccak256(abi.encodePacked(tmp.aadhar)) == keccak256(abi.encodePacked(aadhar)))){\n      return true;\n    }\n    else{\n      return false;\n    }\n  }\n\n  function setPass(string memory _pass) public {\n    userlist[UserToId[getSender()]].pass=keccak256(abi.encode(_pass));\n  }\n\n  function switchRole(uint id) public{\n    UserRole[id]=!UserRole[id];\n  }\n\n  function getUserRole(uint id) public view returns (bool){\n    return UserRole[id];\n  }\n\n  function collisionHash(string memory _string1) public pure returns (bytes32) {\n    return keccak256(abi.encode(_string1));\n  }\n  \n  function addUser(string memory aadhar,string memory name,string memory email,string memory pass,string memory cid,string memory key,bool isValidated) external{\n    require(!isUserRegistered(),\"Already Registered!\");\n    uint userID=userlist.length;\n    bytes32 hsh=collisionHash(pass);\n    UserToId[getSender()]=userID;\n    UserRole[userID]=false;\n    userlist.push(User(userID,aadhar,name,email,hsh,cid,key,isValidated));\n    userExists[getSender()]=true;\n  }\n\n  function ValidateUser(uint userID) public{\n    userlist[userID].isValidated=true;\n    voterList.push(userlist[userID]);\n  }\n\n  function getUserList() external view returns(User[] memory){\n    User[] memory temp=new User[](userlist.length);\n    uint counter=0;\n    for(uint i=0;i<userlist.length;i++){\n      if(userlist[i].isValidated==false){\n        temp[counter]=userlist[i];\n        counter++;\n      }\n    }\n    User[] memory result=new User[](counter);\n    for(uint i=0;i<counter;i++){\n      result[i]=temp[i];\n    }\n    return result;\n  }\n\n  function getVoterList() external view returns(User[] memory){\n    User[] memory result=new User[](voterList.length);\n    for(uint i=0;i<voterList.length;i++){\n      result[i]=voterList[i];\n    }\n    return result;\n  }\n\n  function getSender() public view returns(address) {\n    return msg.sender;  \n  }\n\n  function getUserDetails() public view returns(User memory){\n    require(userExists[getSender()]==true,\"User does not exist\");\n    return userlist[UserToId[getSender()]];\n  }\n\n  function getMappedElections(uint id) public view returns(Election[] memory){\n    Election[] memory temp=new Election[](electionList.length);\n    uint counter=0;\n    for(uint i=0;i<electionList.length;i++){\n      if(electionList[i].isActive==true && electionList[i].deleted==false && userToElection[i][id]==true){\n        temp[counter]=electionList[i];\n        counter++;\n      }\n    }\n    Election[] memory result=new Election[](counter);\n    for(uint i=0;i<counter;i++){\n      result[i]=temp[i];\n    }\n    return result;\n  }\n\n  function getAllMappedElections(uint id) public view returns(Election[] memory){\n    Election[] memory temp=new Election[](electionList.length);\n    uint counter=0;\n    for(uint i=0;i<electionList.length;i++){\n      if(userToElection[i][id]==true){\n        temp[counter]=electionList[i];\n        counter++;\n      }\n    }\n    Election[] memory result=new Election[](counter);\n    for(uint i=0;i<counter;i++){\n      result[i]=temp[i];\n    }\n    return result;\n  }\n\n  function checkVote(uint userid,uint electionid) public view returns(bool){\n    return userVote[userid][electionid];\n  } \n\n  function castVote(uint userid,uint electionid,uint candidateid) public {\n    require(UserToId[getSender()]==userid,\"Unauthorized access detected!\");\n    require(!userVote[userid][electionid],\"Already Voted!\");\n    userElectionCandidateMap[userid][electionid]=candidateid;\n    userVote[userid][electionid]=true;\n    candidateList[candidateid].voteCount++;\n    electionList[electionid].totalVote++;\n    setHistory(userid, electionid, candidateid, block.timestamp);\n  }\n\n  function setHistory(uint userid,uint electionid,uint candidateid,uint256 time) public{\n    userHistory[userid].push(History(electionList[electionid].name,candidateList[candidateid].name,time));\n  }\n\n  function getHistory(uint userid) public view returns(History[] memory){\n    return userHistory[userid];\n  }\n\n  function findWinner(uint electionID) external{\n    require(electionList[electionID].deleted==false);\n    require(electionList[electionID].isActive==false);\n    require(electionList[electionID].totalVote>0);\n    Candidate[] memory tmp=new Candidate[](candidateList.length);\n    uint counter=0;\n    uint maxVote=0;\n    for(uint i=0;i<candidateList.length;i++){\n      if(electionToCandidate[electionID][i]==true && candidateList[i].voteCount>=maxVote && candidateList[i].regNo!=0){\n        maxVote=candidateList[i].voteCount;\n        tmp[counter]=candidateList[i];\n        counter++;\n      }\n    }\n    Candidate[]  memory res=new Candidate[](counter);\n    for(uint i=0;i<counter;i++){\n      res[i]=tmp[i];\n    }\n    if(res.length==0){\n      electionWinner[electionID]=Candidate(0,\"No Winner\",0,0);\n      winnerMapped[electionID]=true;\n    }\n    else if(res.length==1){\n      electionWinner[electionID]=res[0];\n      winnerMapped[electionID]=true;\n    }\n    emit getWinnerArr(res);\n  }\n\n  function setTieWinner(uint electionID,Candidate memory cnd) public{\n    cnd.voteCount++;\n    electionWinner[electionID]=cnd;\n    winnerMapped[electionID]=true;\n  }\n\n  function getWinner(uint electionID) public view returns(Candidate memory){\n    if(winnerMapped[electionID]){\n      return electionWinner[electionID];\n    }\n    else{\n      return Candidate(0,\"null\",0,0);\n    }\n  }\n\n}",
  "sourcePath": "C:\\Users\\Ayan\\Documents\\OnlinevotingSystemBlockchain\\smart_contract\\contracts\\Voters.sol",
  "compiler": {
    "name": "solc",
    "version": "0.8.17+commit.8df45f5f.Emscripten.clang"
  },
  "schemaVersion": "3.4.10",
  "updatedAt": "2022-11-19T19:19:40.851Z",
  "networkType": "ethereum",
  "devdoc": {
    "kind": "dev",
    "methods": {},
    "version": 1
  },
  "userdoc": {
    "kind": "user",
    "methods": {},
    "version": 1
  }
}